{
  "_format": "hh-sol-artifact-1",
  "contractName": "Market",
  "sourceName": "contracts/Market.sol",
  "abi": [
    {
      "inputs": [],
      "stateMutability": "nonpayable",
      "type": "constructor"
    },
    {
      "anonymous": false,
      "inputs": [
        {
          "indexed": false,
          "internalType": "address",
          "name": "nftContract",
          "type": "address"
        },
        {
          "indexed": false,
          "internalType": "uint256",
          "name": "tokenId",
          "type": "uint256"
        },
        {
          "indexed": false,
          "internalType": "address",
          "name": "owner",
          "type": "address"
        },
        {
          "indexed": false,
          "internalType": "address",
          "name": "highestBidder",
          "type": "address"
        },
        {
          "indexed": false,
          "internalType": "uint256",
          "name": "highestBid",
          "type": "uint256"
        }
      ],
      "name": "End",
      "type": "event"
    },
    {
      "anonymous": false,
      "inputs": [
        {
          "indexed": true,
          "internalType": "uint256",
          "name": "itemId",
          "type": "uint256"
        },
        {
          "indexed": true,
          "internalType": "address",
          "name": "nftContract",
          "type": "address"
        },
        {
          "indexed": true,
          "internalType": "uint256",
          "name": "tokenId",
          "type": "uint256"
        },
        {
          "indexed": false,
          "internalType": "address",
          "name": "seller",
          "type": "address"
        },
        {
          "indexed": false,
          "internalType": "address",
          "name": "owner",
          "type": "address"
        },
        {
          "indexed": false,
          "internalType": "uint256",
          "name": "price",
          "type": "uint256"
        },
        {
          "indexed": false,
          "internalType": "bool",
          "name": "sold",
          "type": "bool"
        },
        {
          "indexed": false,
          "internalType": "uint256",
          "name": "highestBid",
          "type": "uint256"
        },
        {
          "indexed": false,
          "internalType": "address",
          "name": "highestBidder",
          "type": "address"
        },
        {
          "indexed": false,
          "internalType": "bool",
          "name": "started",
          "type": "bool"
        },
        {
          "indexed": false,
          "internalType": "bool",
          "name": "ended",
          "type": "bool"
        },
        {
          "indexed": false,
          "internalType": "uint256",
          "name": "endTime",
          "type": "uint256"
        }
      ],
      "name": "MarketItemCreated",
      "type": "event"
    },
    {
      "anonymous": false,
      "inputs": [
        {
          "indexed": true,
          "internalType": "address",
          "name": "nftContract",
          "type": "address"
        },
        {
          "indexed": true,
          "internalType": "uint256",
          "name": "tokenId",
          "type": "uint256"
        },
        {
          "indexed": false,
          "internalType": "address",
          "name": "seller",
          "type": "address"
        },
        {
          "indexed": false,
          "internalType": "address",
          "name": "owner",
          "type": "address"
        },
        {
          "indexed": false,
          "internalType": "bool",
          "name": "sold",
          "type": "bool"
        },
        {
          "indexed": false,
          "internalType": "uint256",
          "name": "highestBid",
          "type": "uint256"
        },
        {
          "indexed": true,
          "internalType": "address",
          "name": "highestBidder",
          "type": "address"
        },
        {
          "indexed": false,
          "internalType": "uint256",
          "name": "endTime",
          "type": "uint256"
        }
      ],
      "name": "NewBidPlaced",
      "type": "event"
    },
    {
      "anonymous": false,
      "inputs": [
        {
          "indexed": true,
          "internalType": "address",
          "name": "bidder",
          "type": "address"
        },
        {
          "indexed": false,
          "internalType": "uint256",
          "name": "amount",
          "type": "uint256"
        }
      ],
      "name": "WithdrawBid",
      "type": "event"
    },
    {
      "inputs": [
        {
          "internalType": "address",
          "name": "",
          "type": "address"
        }
      ],
      "name": "bids",
      "outputs": [
        {
          "internalType": "uint256",
          "name": "",
          "type": "uint256"
        }
      ],
      "stateMutability": "view",
      "type": "function"
    },
    {
      "inputs": [
        {
          "internalType": "address",
          "name": "nftContract",
          "type": "address"
        },
        {
          "internalType": "uint256",
          "name": "tokenId",
          "type": "uint256"
        },
        {
          "internalType": "uint256",
          "name": "price",
          "type": "uint256"
        },
        {
          "internalType": "uint256",
          "name": "time",
          "type": "uint256"
        }
      ],
      "name": "createMarketItem",
      "outputs": [],
      "stateMutability": "payable",
      "type": "function"
    },
    {
      "inputs": [
        {
          "internalType": "address",
          "name": "nftContract",
          "type": "address"
        },
        {
          "internalType": "uint256",
          "name": "itemId",
          "type": "uint256"
        }
      ],
      "name": "endMarketAuction",
      "outputs": [],
      "stateMutability": "nonpayable",
      "type": "function"
    },
    {
      "inputs": [],
      "name": "fetchItemsCreated",
      "outputs": [
        {
          "components": [
            {
              "internalType": "uint256",
              "name": "itemId",
              "type": "uint256"
            },
            {
              "internalType": "address",
              "name": "nftContract",
              "type": "address"
            },
            {
              "internalType": "uint256",
              "name": "tokenId",
              "type": "uint256"
            },
            {
              "internalType": "address payable",
              "name": "seller",
              "type": "address"
            },
            {
              "internalType": "address payable",
              "name": "owner",
              "type": "address"
            },
            {
              "internalType": "uint256",
              "name": "price",
              "type": "uint256"
            },
            {
              "internalType": "bool",
              "name": "sold",
              "type": "bool"
            },
            {
              "internalType": "uint256",
              "name": "highestBid",
              "type": "uint256"
            },
            {
              "internalType": "address",
              "name": "highestBidder",
              "type": "address"
            },
            {
              "internalType": "bool",
              "name": "started",
              "type": "bool"
            },
            {
              "internalType": "bool",
              "name": "ended",
              "type": "bool"
            },
            {
              "internalType": "uint256",
              "name": "endTime",
              "type": "uint256"
            }
          ],
          "internalType": "struct Market.MarketItem[]",
          "name": "",
          "type": "tuple[]"
        }
      ],
      "stateMutability": "view",
      "type": "function"
    },
    {
      "inputs": [],
      "name": "fetchMarketItems",
      "outputs": [
        {
          "components": [
            {
              "internalType": "uint256",
              "name": "itemId",
              "type": "uint256"
            },
            {
              "internalType": "address",
              "name": "nftContract",
              "type": "address"
            },
            {
              "internalType": "uint256",
              "name": "tokenId",
              "type": "uint256"
            },
            {
              "internalType": "address payable",
              "name": "seller",
              "type": "address"
            },
            {
              "internalType": "address payable",
              "name": "owner",
              "type": "address"
            },
            {
              "internalType": "uint256",
              "name": "price",
              "type": "uint256"
            },
            {
              "internalType": "bool",
              "name": "sold",
              "type": "bool"
            },
            {
              "internalType": "uint256",
              "name": "highestBid",
              "type": "uint256"
            },
            {
              "internalType": "address",
              "name": "highestBidder",
              "type": "address"
            },
            {
              "internalType": "bool",
              "name": "started",
              "type": "bool"
            },
            {
              "internalType": "bool",
              "name": "ended",
              "type": "bool"
            },
            {
              "internalType": "uint256",
              "name": "endTime",
              "type": "uint256"
            }
          ],
          "internalType": "struct Market.MarketItem[]",
          "name": "",
          "type": "tuple[]"
        }
      ],
      "stateMutability": "view",
      "type": "function"
    },
    {
      "inputs": [],
      "name": "fetchMyNFTs",
      "outputs": [
        {
          "components": [
            {
              "internalType": "uint256",
              "name": "itemId",
              "type": "uint256"
            },
            {
              "internalType": "address",
              "name": "nftContract",
              "type": "address"
            },
            {
              "internalType": "uint256",
              "name": "tokenId",
              "type": "uint256"
            },
            {
              "internalType": "address payable",
              "name": "seller",
              "type": "address"
            },
            {
              "internalType": "address payable",
              "name": "owner",
              "type": "address"
            },
            {
              "internalType": "uint256",
              "name": "price",
              "type": "uint256"
            },
            {
              "internalType": "bool",
              "name": "sold",
              "type": "bool"
            },
            {
              "internalType": "uint256",
              "name": "highestBid",
              "type": "uint256"
            },
            {
              "internalType": "address",
              "name": "highestBidder",
              "type": "address"
            },
            {
              "internalType": "bool",
              "name": "started",
              "type": "bool"
            },
            {
              "internalType": "bool",
              "name": "ended",
              "type": "bool"
            },
            {
              "internalType": "uint256",
              "name": "endTime",
              "type": "uint256"
            }
          ],
          "internalType": "struct Market.MarketItem[]",
          "name": "",
          "type": "tuple[]"
        }
      ],
      "stateMutability": "view",
      "type": "function"
    },
    {
      "inputs": [],
      "name": "getListingPrice",
      "outputs": [
        {
          "internalType": "uint256",
          "name": "",
          "type": "uint256"
        }
      ],
      "stateMutability": "view",
      "type": "function"
    },
    {
      "inputs": [],
      "name": "listingPrice",
      "outputs": [
        {
          "internalType": "uint256",
          "name": "",
          "type": "uint256"
        }
      ],
      "stateMutability": "view",
      "type": "function"
    },
    {
      "inputs": [],
      "name": "owner",
      "outputs": [
        {
          "internalType": "address payable",
          "name": "",
          "type": "address"
        }
      ],
      "stateMutability": "view",
      "type": "function"
    },
    {
      "inputs": [
        {
          "internalType": "address",
          "name": "nftContract",
          "type": "address"
        },
        {
          "internalType": "uint256",
          "name": "itemId",
          "type": "uint256"
        },
        {
          "internalType": "uint256",
          "name": "bid",
          "type": "uint256"
        }
      ],
      "name": "placeBidOnAuction",
      "outputs": [],
      "stateMutability": "payable",
      "type": "function"
    },
    {
      "inputs": [
        {
          "internalType": "uint256",
          "name": "itemId",
          "type": "uint256"
        }
      ],
      "name": "withdrawBids",
      "outputs": [],
      "stateMutability": "payable",
      "type": "function"
    }
  ],
  "bytecode": "0x608060405266354a6ba7a1800060045534801561001b57600080fd5b50600160008190555033600360006101000a81548173ffffffffffffffffffffffffffffffffffffffff021916908373ffffffffffffffffffffffffffffffffffffffff160217905550612dac806100746000396000f3fe60806040526004361061009c5760003560e01c806381b3fc231161006457806381b3fc231461017b5780638da5cb5b146101a4578063c78f19f9146101cf578063e346c7da146101fa578063edb5f90514610216578063f064c32e146102325761009c565b80630f08efe0146100a157806312e85585146100cc578063202e3740146100f7578063599ba2341461012257806362ea82db1461013e575b600080fd5b3480156100ad57600080fd5b506100b661025d565b6040516100c3919061278f565b60405180910390f35b3480156100d857600080fd5b506100e161062a565b6040516100ee9190612931565b60405180910390f35b34801561010357600080fd5b5061010c610634565b604051610119919061278f565b60405180910390f35b61013c600480360381019061013791906121ae565b610a85565b005b34801561014a57600080fd5b50610165600480360381019061016091906120fa565b610ee7565b6040516101729190612931565b60405180910390f35b34801561018757600080fd5b506101a2600480360381019061019d9190612123565b610eff565b005b3480156101b057600080fd5b506101b96114ed565b6040516101c6919061260a565b60405180910390f35b3480156101db57600080fd5b506101e4611513565b6040516101f19190612931565b60405180910390f35b610214600480360381019061020f919061215f565b611519565b005b610230600480360381019061022b9190612211565b611903565b005b34801561023e57600080fd5b50610247611b9c565b604051610254919061278f565b60405180910390f35b6060600061026b6001611fed565b905060006102796002611fed565b6102836001611fed565b61028d91906129f7565b90506000808267ffffffffffffffff8111156102d2577f4e487b7100000000000000000000000000000000000000000000000000000000600052604160045260246000fd5b60405190808252806020026020018201604052801561030b57816020015b6102f8612011565b8152602001906001900390816102f05790505b50905060005b8481101561061f57600073ffffffffffffffffffffffffffffffffffffffff166005600060018461034291906129a1565b815260200190815260200160002060040160009054906101000a900473ffffffffffffffffffffffffffffffffffffffff1673ffffffffffffffffffffffffffffffffffffffff16141561060c576000600560006001846103a391906129a1565b815260200190815260200160002060000154905060006005600083815260200190815260200160002090508060405180610180016040529081600082015481526020016001820160009054906101000a900473ffffffffffffffffffffffffffffffffffffffff1673ffffffffffffffffffffffffffffffffffffffff1673ffffffffffffffffffffffffffffffffffffffff168152602001600282015481526020016003820160009054906101000a900473ffffffffffffffffffffffffffffffffffffffff1673ffffffffffffffffffffffffffffffffffffffff1673ffffffffffffffffffffffffffffffffffffffff1681526020016004820160009054906101000a900473ffffffffffffffffffffffffffffffffffffffff1673ffffffffffffffffffffffffffffffffffffffff1673ffffffffffffffffffffffffffffffffffffffff168152602001600582015481526020016006820160009054906101000a900460ff16151515158152602001600782015481526020016008820160009054906101000a900473ffffffffffffffffffffffffffffffffffffffff1673ffffffffffffffffffffffffffffffffffffffff1673ffffffffffffffffffffffffffffffffffffffff1681526020016008820160149054906101000a900460ff161515151581526020016008820160159054906101000a900460ff161515151581526020016009820154815250508486815181106105ef577f4e487b7100000000000000000000000000000000000000000000000000000000600052603260045260246000fd5b602002602001018190525060018561060791906129a1565b945050505b808061061790612abb565b915050610311565b508094505050505090565b6000600454905090565b606060006106426001611fed565b905060008060005b838110156106eb573373ffffffffffffffffffffffffffffffffffffffff166005600060018461067a91906129a1565b815260200190815260200160002060040160009054906101000a900473ffffffffffffffffffffffffffffffffffffffff1673ffffffffffffffffffffffffffffffffffffffff1614156106d8576001836106d591906129a1565b92505b80806106e390612abb565b91505061064a565b5060008267ffffffffffffffff81111561072e577f4e487b7100000000000000000000000000000000000000000000000000000000600052604160045260246000fd5b60405190808252806020026020018201604052801561076757816020015b610754612011565b81526020019060019003908161074c5790505b50905060005b84811015610a7a573373ffffffffffffffffffffffffffffffffffffffff166005600060018461079d91906129a1565b815260200190815260200160002060040160009054906101000a900473ffffffffffffffffffffffffffffffffffffffff1673ffffffffffffffffffffffffffffffffffffffff161415610a67576000600560006001846107fe91906129a1565b815260200190815260200160002060000154905060006005600083815260200190815260200160002090508060405180610180016040529081600082015481526020016001820160009054906101000a900473ffffffffffffffffffffffffffffffffffffffff1673ffffffffffffffffffffffffffffffffffffffff1673ffffffffffffffffffffffffffffffffffffffff168152602001600282015481526020016003820160009054906101000a900473ffffffffffffffffffffffffffffffffffffffff1673ffffffffffffffffffffffffffffffffffffffff1673ffffffffffffffffffffffffffffffffffffffff1681526020016004820160009054906101000a900473ffffffffffffffffffffffffffffffffffffffff1673ffffffffffffffffffffffffffffffffffffffff1673ffffffffffffffffffffffffffffffffffffffff168152602001600582015481526020016006820160009054906101000a900460ff16151515158152602001600782015481526020016008820160009054906101000a900473ffffffffffffffffffffffffffffffffffffffff1673ffffffffffffffffffffffffffffffffffffffff1673ffffffffffffffffffffffffffffffffffffffff1681526020016008820160149054906101000a900460ff161515151581526020016008820160159054906101000a900460ff16151515158152602001600982015481525050848681518110610a4a577f4e487b7100000000000000000000000000000000000000000000000000000000600052603260045260246000fd5b6020026020010181905250600185610a6291906129a1565b945050505b8080610a7290612abb565b91505061076d565b508094505050505090565b60026000541415610acb576040517f08c379a0000000000000000000000000000000000000000000000000000000008152600401610ac2906128f1565b60405180910390fd5b600260008190555060008211610b16576040517f08c379a0000000000000000000000000000000000000000000000000000000008152600401610b0d906127d1565b60405180910390fd5b6004543414610b5a576040517f08c379a0000000000000000000000000000000000000000000000000000000008152600401610b5190612891565b60405180910390fd5b610b646001611ffb565b6000610b706001611fed565b90506000839050600033905060006001905060008590506040518061018001604052808681526020018a73ffffffffffffffffffffffffffffffffffffffff1681526020018981526020013373ffffffffffffffffffffffffffffffffffffffff168152602001600073ffffffffffffffffffffffffffffffffffffffff1681526020018881526020016000151581526020018581526020018473ffffffffffffffffffffffffffffffffffffffff168152602001831515815260200160001515815260200182815250600560008781526020019081526020016000206000820151816000015560208201518160010160006101000a81548173ffffffffffffffffffffffffffffffffffffffff021916908373ffffffffffffffffffffffffffffffffffffffff1602179055506040820151816002015560608201518160030160006101000a81548173ffffffffffffffffffffffffffffffffffffffff021916908373ffffffffffffffffffffffffffffffffffffffff16021790555060808201518160040160006101000a81548173ffffffffffffffffffffffffffffffffffffffff021916908373ffffffffffffffffffffffffffffffffffffffff16021790555060a0820151816005015560c08201518160060160006101000a81548160ff02191690831515021790555060e082015181600701556101008201518160080160006101000a81548173ffffffffffffffffffffffffffffffffffffffff021916908373ffffffffffffffffffffffffffffffffffffffff1602179055506101208201518160080160146101000a81548160ff0219169083151502179055506101408201518160080160156101000a81548160ff02191690831515021790555061016082015181600901559050508873ffffffffffffffffffffffffffffffffffffffff166323b872dd33308b6040518463ffffffff1660e01b8152600401610e3f93929190612678565b600060405180830381600087803b158015610e5957600080fd5b505af1158015610e6d573d6000803e3d6000fd5b50505050878973ffffffffffffffffffffffffffffffffffffffff16867fa3e1026b9bd8403b6dd39abf56e5149579f87a7cc35a609456b1a18e37a1b1a93360008c60008b8b8b60008c604051610ecc999897969594939291906126af565b60405180910390a45050505050600160008190555050505050565b60066020528060005260406000206000915090505481565b60026000541415610f45576040517f08c379a0000000000000000000000000000000000000000000000000000000008152600401610f3c906128f1565b60405180910390fd5b600260008190555060006005600083815260200190815260200160002060020154905060006005600084815260200190815260200160002060080160009054906101000a900473ffffffffffffffffffffffffffffffffffffffff1690506000600660008373ffffffffffffffffffffffffffffffffffffffff1673ffffffffffffffffffffffffffffffffffffffff16815260200190815260200160002054905060006005600086815260200190815260200160002060030160009054906101000a900473ffffffffffffffffffffffffffffffffffffffff1690506005600086815260200190815260200160002060080160149054906101000a900460ff16611085576040517f08c379a000000000000000000000000000000000000000000000000000000000815260040161107c90612911565b60405180910390fd5b60056000868152602001908152602001600020600901544210156110de576040517f08c379a00000000000000000000000000000000000000000000000000000000081526004016110d5906127b1565b60405180910390fd5b6005600086815260200190815260200160002060080160159054906101000a900460ff1615611142576040517f08c379a0000000000000000000000000000000000000000000000000000000008152600401611139906128d1565b60405180910390fd5b600073ffffffffffffffffffffffffffffffffffffffff166005600087815260200190815260200160002060080160009054906101000a900473ffffffffffffffffffffffffffffffffffffffff1673ffffffffffffffffffffffffffffffffffffffff161461139a57826005600087815260200190815260200160002060040160006101000a81548173ffffffffffffffffffffffffffffffffffffffff021916908373ffffffffffffffffffffffffffffffffffffffff1602179055506000808273ffffffffffffffffffffffffffffffffffffffff1684604051611228906125f5565b60006040518083038185875af1925050503d8060008114611265576040519150601f19603f3d011682016040523d82523d6000602084013e61126a565b606091505b5091509150816112af576040517f08c379a00000000000000000000000000000000000000000000000000000000081526004016112a690612871565b60405180910390fd5b8773ffffffffffffffffffffffffffffffffffffffff166323b872dd3087896040518463ffffffff1660e01b81526004016112ec93929190612678565b600060405180830381600087803b15801561130657600080fd5b505af115801561131a573d6000803e3d6000fd5b505050506113286002611ffb565b600360009054906101000a900473ffffffffffffffffffffffffffffffffffffffff1673ffffffffffffffffffffffffffffffffffffffff166108fc6004549081150290604051600060405180830381858888f19350505050158015611392573d6000803e3d6000fd5b50505061140a565b8573ffffffffffffffffffffffffffffffffffffffff166323b872dd3083876040518463ffffffff1660e01b81526004016113d793929190612678565b600060405180830381600087803b1580156113f157600080fd5b505af1158015611405573d6000803e3d6000fd5b505050505b60016005600087815260200190815260200160002060060160006101000a81548160ff02191690831515021790555060016005600087815260200190815260200160002060080160156101000a81548160ff0219169083151502179055507f0c56fedaf8b31b16b23df1099e474814624aa03855a462e2cd874afafe9c6d6286856005600089815260200190815260200160002060040160009054906101000a900473ffffffffffffffffffffffffffffffffffffffff1686866040516114d595949392919061273c565b60405180910390a15050505060016000819055505050565b600360009054906101000a900473ffffffffffffffffffffffffffffffffffffffff1681565b60045481565b6002600054141561155f576040517f08c379a0000000000000000000000000000000000000000000000000000000008152600401611556906128f1565b60405180910390fd5b600260008190555060006005600084815260200190815260200160002060020154905060006005600085815260200190815260200160002060070154905060006005600086815260200190815260200160002060080160009054906101000a900473ffffffffffffffffffffffffffffffffffffffff1690506000600560008781526020019081526020016000206009015490506005600087815260200190815260200160002060080160149054906101000a900460ff16611656576040517f08c379a000000000000000000000000000000000000000000000000000000000815260040161164d906127f1565b60405180910390fd5b600560008781526020019081526020016000206009015442106116ae576040517f08c379a00000000000000000000000000000000000000000000000000000000081526004016116a590612811565b60405180910390fd5b60056000878152602001908152602001600020600701548511611706576040517f08c379a00000000000000000000000000000000000000000000000000000000081526004016116fd906128b1565b60405180910390fd5b600073ffffffffffffffffffffffffffffffffffffffff166005600088815260200190815260200160002060080160009054906101000a900473ffffffffffffffffffffffffffffffffffffffff1673ffffffffffffffffffffffffffffffffffffffff161461181357600560008781526020019081526020016000206007015460066000600560008a815260200190815260200160002060080160009054906101000a900473ffffffffffffffffffffffffffffffffffffffff1673ffffffffffffffffffffffffffffffffffffffff1673ffffffffffffffffffffffffffffffffffffffff168152602001908152602001600020600082825461180b91906129a1565b925050819055505b846005600088815260200190815260200160002060070181905550336005600088815260200190815260200160002060080160006101000a81548173ffffffffffffffffffffffffffffffffffffffff021916908373ffffffffffffffffffffffffffffffffffffffff1602179055508173ffffffffffffffffffffffffffffffffffffffff16848873ffffffffffffffffffffffffffffffffffffffff167f6a082bd94c9a90ccdbd03a7ff9ca49e389ca6e3edeac1e3af7f3c09d122b89913360008089886040516118ea959493929190612625565b60405180910390a4505050506001600081905550505050565b60006005600083815260200190815260200160002060070154905060006005600084815260200190815260200160002060030160009054906101000a900473ffffffffffffffffffffffffffffffffffffffff1690506000600660003373ffffffffffffffffffffffffffffffffffffffff1673ffffffffffffffffffffffffffffffffffffffff1681526020019081526020016000205490506000600660003373ffffffffffffffffffffffffffffffffffffffff1673ffffffffffffffffffffffffffffffffffffffff16815260200190815260200160002081905550828110611a24576040517f08c379a0000000000000000000000000000000000000000000000000000000008152600401611a1b90612831565b60405180910390fd5b8173ffffffffffffffffffffffffffffffffffffffff163373ffffffffffffffffffffffffffffffffffffffff161415611a93576040517f08c379a0000000000000000000000000000000000000000000000000000000008152600401611a8a90612851565b60405180910390fd5b6000600660003373ffffffffffffffffffffffffffffffffffffffff1673ffffffffffffffffffffffffffffffffffffffff168152602001908152602001600020819055506000803373ffffffffffffffffffffffffffffffffffffffff1683604051611aff906125f5565b60006040518083038185875af1925050503d8060008114611b3c576040519150601f19603f3d011682016040523d82523d6000602084013e611b41565b606091505b50915091503373ffffffffffffffffffffffffffffffffffffffff167fbd534d3467660b93e3889762d2f386716c59899db5ea180d724f2c07955a7cf784604051611b8c9190612931565b60405180910390a2505050505050565b60606000611baa6001611fed565b905060008060005b83811015611c53573373ffffffffffffffffffffffffffffffffffffffff1660056000600184611be291906129a1565b815260200190815260200160002060030160009054906101000a900473ffffffffffffffffffffffffffffffffffffffff1673ffffffffffffffffffffffffffffffffffffffff161415611c4057600183611c3d91906129a1565b92505b8080611c4b90612abb565b915050611bb2565b5060008267ffffffffffffffff811115611c96577f4e487b7100000000000000000000000000000000000000000000000000000000600052604160045260246000fd5b604051908082528060200260200182016040528015611ccf57816020015b611cbc612011565b815260200190600190039081611cb45790505b50905060005b84811015611fe2573373ffffffffffffffffffffffffffffffffffffffff1660056000600184611d0591906129a1565b815260200190815260200160002060030160009054906101000a900473ffffffffffffffffffffffffffffffffffffffff1673ffffffffffffffffffffffffffffffffffffffff161415611fcf57600060056000600184611d6691906129a1565b815260200190815260200160002060000154905060006005600083815260200190815260200160002090508060405180610180016040529081600082015481526020016001820160009054906101000a900473ffffffffffffffffffffffffffffffffffffffff1673ffffffffffffffffffffffffffffffffffffffff1673ffffffffffffffffffffffffffffffffffffffff168152602001600282015481526020016003820160009054906101000a900473ffffffffffffffffffffffffffffffffffffffff1673ffffffffffffffffffffffffffffffffffffffff1673ffffffffffffffffffffffffffffffffffffffff1681526020016004820160009054906101000a900473ffffffffffffffffffffffffffffffffffffffff1673ffffffffffffffffffffffffffffffffffffffff1673ffffffffffffffffffffffffffffffffffffffff168152602001600582015481526020016006820160009054906101000a900460ff16151515158152602001600782015481526020016008820160009054906101000a900473ffffffffffffffffffffffffffffffffffffffff1673ffffffffffffffffffffffffffffffffffffffff1673ffffffffffffffffffffffffffffffffffffffff1681526020016008820160149054906101000a900460ff161515151581526020016008820160159054906101000a900460ff16151515158152602001600982015481525050848681518110611fb2577f4e487b7100000000000000000000000000000000000000000000000000000000600052603260045260246000fd5b6020026020010181905250600185611fca91906129a1565b945050505b8080611fda90612abb565b915050611cd5565b508094505050505090565b600081600001549050919050565b6001816000016000828254019250508190555050565b60405180610180016040528060008152602001600073ffffffffffffffffffffffffffffffffffffffff16815260200160008152602001600073ffffffffffffffffffffffffffffffffffffffff168152602001600073ffffffffffffffffffffffffffffffffffffffff1681526020016000815260200160001515815260200160008152602001600073ffffffffffffffffffffffffffffffffffffffff168152602001600015158152602001600015158152602001600081525090565b6000813590506120df81612d48565b92915050565b6000813590506120f481612d5f565b92915050565b60006020828403121561210c57600080fd5b600061211a848285016120d0565b91505092915050565b6000806040838503121561213657600080fd5b6000612144858286016120d0565b9250506020612155858286016120e5565b9150509250929050565b60008060006060848603121561217457600080fd5b6000612182868287016120d0565b9350506020612193868287016120e5565b92505060406121a4868287016120e5565b9150509250925092565b600080600080608085870312156121c457600080fd5b60006121d2878288016120d0565b94505060206121e3878288016120e5565b93505060406121f4878288016120e5565b9250506060612205878288016120e5565b91505092959194509250565b60006020828403121561222357600080fd5b6000612231848285016120e5565b91505092915050565b600061224683836124e1565b6101808301905092915050565b61225c81612a85565b82525050565b61226b81612a3d565b82525050565b61227a81612a3d565b82525050565b61228981612a2b565b82525050565b61229881612a2b565b82525050565b60006122a98261295c565b6122b38185612974565b93506122be8361294c565b8060005b838110156122ef5781516122d6888261223a565b97506122e183612967565b9250506001810190506122c2565b5085935050505092915050565b61230581612a4f565b82525050565b61231481612a4f565b82525050565b6000612327601983612990565b915061233282612b33565b602082019050919050565b600061234a601b83612990565b915061235582612b5c565b602082019050919050565b600061236d600b83612990565b915061237882612b85565b602082019050919050565b6000612390600683612990565b915061239b82612bae565b602082019050919050565b60006123b3601b83612990565b91506123be82612bd7565b602082019050919050565b60006123d6601383612990565b91506123e182612c00565b602082019050919050565b60006123f9601683612990565b915061240482612c29565b602082019050919050565b600061241c602483612990565b915061242782612c52565b604082019050919050565b600061243f600083612985565b915061244a82612ca1565b600082019050919050565b6000612462601d83612990565b915061246d82612ca4565b602082019050919050565b6000612485601683612990565b915061249082612ccd565b602082019050919050565b60006124a8601f83612990565b91506124b382612cf6565b602082019050919050565b60006124cb601483612990565b91506124d682612d1f565b602082019050919050565b610180820160008201516124f860008501826125d7565b50602082015161250b6020850182612280565b50604082015161251e60408501826125d7565b5060608201516125316060850182612262565b5060808201516125446080850182612262565b5060a082015161255760a08501826125d7565b5060c082015161256a60c08501826122fc565b5060e082015161257d60e08501826125d7565b50610100820151612592610100850182612280565b506101208201516125a76101208501826122fc565b506101408201516125bc6101408501826122fc565b506101608201516125d16101608501826125d7565b50505050565b6125e081612a7b565b82525050565b6125ef81612a7b565b82525050565b600061260082612432565b9150819050919050565b600060208201905061261f6000830184612271565b92915050565b600060a08201905061263a600083018861228f565b612647602083018761228f565b612654604083018661230b565b61266160608301856125e6565b61266e60808301846125e6565b9695505050505050565b600060608201905061268d600083018661228f565b61269a602083018561228f565b6126a760408301846125e6565b949350505050565b6000610120820190506126c5600083018c61228f565b6126d2602083018b61228f565b6126df604083018a6125e6565b6126ec606083018961230b565b6126f960808301886125e6565b61270660a083018761228f565b61271360c083018661230b565b61272060e083018561230b565b61272e6101008301846125e6565b9a9950505050505050505050565b600060a082019050612751600083018861228f565b61275e60208301876125e6565b61276b6040830186612253565b612778606083018561228f565b61278560808301846125e6565b9695505050505050565b600060208201905081810360008301526127a9818461229e565b905092915050565b600060208201905081810360008301526127ca8161231a565b9050919050565b600060208201905081810360008301526127ea8161233d565b9050919050565b6000602082019050818103600083015261280a81612360565b9050919050565b6000602082019050818103600083015261282a81612383565b9050919050565b6000602082019050818103600083015261284a816123a6565b9050919050565b6000602082019050818103600083015261286a816123c9565b9050919050565b6000602082019050818103600083015261288a816123ec565b9050919050565b600060208201905081810360008301526128aa8161240f565b9050919050565b600060208201905081810360008301526128ca81612455565b9050919050565b600060208201905081810360008301526128ea81612478565b9050919050565b6000602082019050818103600083015261290a8161249b565b9050919050565b6000602082019050818103600083015261292a816124be565b9050919050565b600060208201905061294660008301846125e6565b92915050565b6000819050602082019050919050565b600081519050919050565b6000602082019050919050565b600082825260208201905092915050565b600081905092915050565b600082825260208201905092915050565b60006129ac82612a7b565b91506129b783612a7b565b9250827fffffffffffffffffffffffffffffffffffffffffffffffffffffffffffffffff038211156129ec576129eb612b04565b5b828201905092915050565b6000612a0282612a7b565b9150612a0d83612a7b565b925082821015612a2057612a1f612b04565b5b828203905092915050565b6000612a3682612a5b565b9050919050565b6000612a4882612a5b565b9050919050565b60008115159050919050565b600073ffffffffffffffffffffffffffffffffffffffff82169050919050565b6000819050919050565b6000612a9082612a97565b9050919050565b6000612aa282612aa9565b9050919050565b6000612ab482612a5b565b9050919050565b6000612ac682612a7b565b91507fffffffffffffffffffffffffffffffffffffffffffffffffffffffffffffffff821415612af957612af8612b04565b5b600182019050919050565b7f4e487b7100000000000000000000000000000000000000000000000000000000600052601160045260246000fd5b7f41756374696f6e207374696c6c20696e2070726f677265737300000000000000600082015250565b7f5072696365206d7573742062652061746c656173742031207765690000000000600082015250565b7f4e6f742053746172746564000000000000000000000000000000000000000000600082015250565b7f456e646564210000000000000000000000000000000000000000000000000000600082015250565b7f596f752061726520746865206869676865737420626964646572210000000000600082015250565b7f596f7520617265207468652073656c6c65722100000000000000000000000000600082015250565b7f436f756c646e2774206372656469742073656c6c657200000000000000000000600082015250565b7f5072696365206d75737420626520657175616c20746f206c697374696e67207060008201527f7269636500000000000000000000000000000000000000000000000000000000602082015250565b50565b7f426964206973206c6f776572207468616e206869676865737420626964000000600082015250565b7f41756374696f6e20616c726561647920656e6465642100000000000000000000600082015250565b7f5265656e7472616e637947756172643a207265656e7472616e742063616c6c00600082015250565b7f41756374696f6e206e6f74207374617274656421000000000000000000000000600082015250565b612d5181612a2b565b8114612d5c57600080fd5b50565b612d6881612a7b565b8114612d7357600080fd5b5056fea26469706673582212201227be3a2ffbe5dd152627b3da44b10635d1e7e57cb9f861685f4c1ec1e1051764736f6c63430008040033",
  "linkReferences": {},
  "deployedLinkReferences": {}
}