{
  "_format": "hh-sol-artifact-1",
  "contractName": "Market",
  "sourceName": "contracts/Market.sol",
  "abi": [
    {
      "inputs": [],
      "stateMutability": "nonpayable",
      "type": "constructor"
    },
    {
      "anonymous": false,
      "inputs": [
        {
          "indexed": true,
          "internalType": "address",
          "name": "sender",
          "type": "address"
        },
        {
          "indexed": false,
          "internalType": "uint256",
          "name": "amount",
          "type": "uint256"
        }
      ],
      "name": "Bid",
      "type": "event"
    },
    {
      "anonymous": false,
      "inputs": [
        {
          "indexed": false,
          "internalType": "address",
          "name": "highestBidder",
          "type": "address"
        },
        {
          "indexed": false,
          "internalType": "uint256",
          "name": "highestBid",
          "type": "uint256"
        }
      ],
      "name": "End",
      "type": "event"
    },
    {
      "anonymous": false,
      "inputs": [
        {
          "indexed": true,
          "internalType": "uint256",
          "name": "itemId",
          "type": "uint256"
        },
        {
          "indexed": true,
          "internalType": "address",
          "name": "nftContract",
          "type": "address"
        },
        {
          "indexed": true,
          "internalType": "uint256",
          "name": "tokenId",
          "type": "uint256"
        },
        {
          "indexed": false,
          "internalType": "address",
          "name": "seller",
          "type": "address"
        },
        {
          "indexed": false,
          "internalType": "address",
          "name": "owner",
          "type": "address"
        },
        {
          "indexed": false,
          "internalType": "uint256",
          "name": "price",
          "type": "uint256"
        },
        {
          "indexed": false,
          "internalType": "bool",
          "name": "sold",
          "type": "bool"
        },
        {
          "indexed": false,
          "internalType": "uint256",
          "name": "highestBid",
          "type": "uint256"
        },
        {
          "indexed": false,
          "internalType": "address",
          "name": "highestBidder",
          "type": "address"
        },
        {
          "indexed": false,
          "internalType": "bool",
          "name": "started",
          "type": "bool"
        },
        {
          "indexed": false,
          "internalType": "bool",
          "name": "ended",
          "type": "bool"
        },
        {
          "indexed": false,
          "internalType": "uint256",
          "name": "endTime",
          "type": "uint256"
        }
      ],
      "name": "MarketItemCreatedOrAuctionEnded",
      "type": "event"
    },
    {
      "anonymous": false,
      "inputs": [
        {
          "indexed": true,
          "internalType": "address",
          "name": "nftContract",
          "type": "address"
        },
        {
          "indexed": true,
          "internalType": "uint256",
          "name": "tokenId",
          "type": "uint256"
        },
        {
          "indexed": false,
          "internalType": "address",
          "name": "seller",
          "type": "address"
        },
        {
          "indexed": false,
          "internalType": "address",
          "name": "owner",
          "type": "address"
        },
        {
          "indexed": false,
          "internalType": "bool",
          "name": "sold",
          "type": "bool"
        },
        {
          "indexed": false,
          "internalType": "uint256",
          "name": "highestBid",
          "type": "uint256"
        },
        {
          "indexed": true,
          "internalType": "address",
          "name": "highestBidder",
          "type": "address"
        },
        {
          "indexed": false,
          "internalType": "uint256",
          "name": "endTime",
          "type": "uint256"
        }
      ],
      "name": "NewBidPlaced",
      "type": "event"
    },
    {
      "anonymous": false,
      "inputs": [
        {
          "indexed": true,
          "internalType": "address",
          "name": "bidder",
          "type": "address"
        },
        {
          "indexed": false,
          "internalType": "uint256",
          "name": "amount",
          "type": "uint256"
        }
      ],
      "name": "Withdraw",
      "type": "event"
    },
    {
      "anonymous": false,
      "inputs": [
        {
          "indexed": true,
          "internalType": "address",
          "name": "bidder",
          "type": "address"
        },
        {
          "indexed": false,
          "internalType": "uint256",
          "name": "amount",
          "type": "uint256"
        }
      ],
      "name": "WithdrawBid",
      "type": "event"
    },
    {
      "inputs": [
        {
          "internalType": "address",
          "name": "",
          "type": "address"
        }
      ],
      "name": "bids",
      "outputs": [
        {
          "internalType": "uint256",
          "name": "",
          "type": "uint256"
        }
      ],
      "stateMutability": "view",
      "type": "function"
    },
    {
      "inputs": [
        {
          "internalType": "address",
          "name": "nftContract",
          "type": "address"
        },
        {
          "internalType": "uint256",
          "name": "tokenId",
          "type": "uint256"
        },
        {
          "internalType": "uint256",
          "name": "price",
          "type": "uint256"
        }
      ],
      "name": "createMarketItem",
      "outputs": [],
      "stateMutability": "payable",
      "type": "function"
    },
    {
      "inputs": [
        {
          "internalType": "address",
          "name": "nftContract",
          "type": "address"
        },
        {
          "internalType": "uint256",
          "name": "itemId",
          "type": "uint256"
        }
      ],
      "name": "endMarketAuction",
      "outputs": [],
      "stateMutability": "nonpayable",
      "type": "function"
    },
    {
      "inputs": [],
      "name": "fetchItemsCreated",
      "outputs": [
        {
          "components": [
            {
              "internalType": "uint256",
              "name": "itemId",
              "type": "uint256"
            },
            {
              "internalType": "address",
              "name": "nftContract",
              "type": "address"
            },
            {
              "internalType": "uint256",
              "name": "tokenId",
              "type": "uint256"
            },
            {
              "internalType": "address payable",
              "name": "seller",
              "type": "address"
            },
            {
              "internalType": "address payable",
              "name": "owner",
              "type": "address"
            },
            {
              "internalType": "uint256",
              "name": "price",
              "type": "uint256"
            },
            {
              "internalType": "bool",
              "name": "sold",
              "type": "bool"
            },
            {
              "internalType": "uint256",
              "name": "highestBid",
              "type": "uint256"
            },
            {
              "internalType": "address",
              "name": "highestBidder",
              "type": "address"
            },
            {
              "internalType": "bool",
              "name": "started",
              "type": "bool"
            },
            {
              "internalType": "bool",
              "name": "ended",
              "type": "bool"
            },
            {
              "internalType": "uint256",
              "name": "endTime",
              "type": "uint256"
            }
          ],
          "internalType": "struct Market.MarketItem[]",
          "name": "",
          "type": "tuple[]"
        }
      ],
      "stateMutability": "view",
      "type": "function"
    },
    {
      "inputs": [],
      "name": "fetchMarketItems",
      "outputs": [
        {
          "components": [
            {
              "internalType": "uint256",
              "name": "itemId",
              "type": "uint256"
            },
            {
              "internalType": "address",
              "name": "nftContract",
              "type": "address"
            },
            {
              "internalType": "uint256",
              "name": "tokenId",
              "type": "uint256"
            },
            {
              "internalType": "address payable",
              "name": "seller",
              "type": "address"
            },
            {
              "internalType": "address payable",
              "name": "owner",
              "type": "address"
            },
            {
              "internalType": "uint256",
              "name": "price",
              "type": "uint256"
            },
            {
              "internalType": "bool",
              "name": "sold",
              "type": "bool"
            },
            {
              "internalType": "uint256",
              "name": "highestBid",
              "type": "uint256"
            },
            {
              "internalType": "address",
              "name": "highestBidder",
              "type": "address"
            },
            {
              "internalType": "bool",
              "name": "started",
              "type": "bool"
            },
            {
              "internalType": "bool",
              "name": "ended",
              "type": "bool"
            },
            {
              "internalType": "uint256",
              "name": "endTime",
              "type": "uint256"
            }
          ],
          "internalType": "struct Market.MarketItem[]",
          "name": "",
          "type": "tuple[]"
        }
      ],
      "stateMutability": "view",
      "type": "function"
    },
    {
      "inputs": [],
      "name": "fetchMyNFTs",
      "outputs": [
        {
          "components": [
            {
              "internalType": "uint256",
              "name": "itemId",
              "type": "uint256"
            },
            {
              "internalType": "address",
              "name": "nftContract",
              "type": "address"
            },
            {
              "internalType": "uint256",
              "name": "tokenId",
              "type": "uint256"
            },
            {
              "internalType": "address payable",
              "name": "seller",
              "type": "address"
            },
            {
              "internalType": "address payable",
              "name": "owner",
              "type": "address"
            },
            {
              "internalType": "uint256",
              "name": "price",
              "type": "uint256"
            },
            {
              "internalType": "bool",
              "name": "sold",
              "type": "bool"
            },
            {
              "internalType": "uint256",
              "name": "highestBid",
              "type": "uint256"
            },
            {
              "internalType": "address",
              "name": "highestBidder",
              "type": "address"
            },
            {
              "internalType": "bool",
              "name": "started",
              "type": "bool"
            },
            {
              "internalType": "bool",
              "name": "ended",
              "type": "bool"
            },
            {
              "internalType": "uint256",
              "name": "endTime",
              "type": "uint256"
            }
          ],
          "internalType": "struct Market.MarketItem[]",
          "name": "",
          "type": "tuple[]"
        }
      ],
      "stateMutability": "view",
      "type": "function"
    },
    {
      "inputs": [],
      "name": "getListingPrice",
      "outputs": [
        {
          "internalType": "uint256",
          "name": "",
          "type": "uint256"
        }
      ],
      "stateMutability": "view",
      "type": "function"
    },
    {
      "inputs": [],
      "name": "listingPrice",
      "outputs": [
        {
          "internalType": "uint256",
          "name": "",
          "type": "uint256"
        }
      ],
      "stateMutability": "view",
      "type": "function"
    },
    {
      "inputs": [],
      "name": "owner",
      "outputs": [
        {
          "internalType": "address payable",
          "name": "",
          "type": "address"
        }
      ],
      "stateMutability": "view",
      "type": "function"
    },
    {
      "inputs": [
        {
          "internalType": "address",
          "name": "nftContract",
          "type": "address"
        },
        {
          "internalType": "uint256",
          "name": "itemId",
          "type": "uint256"
        }
      ],
      "name": "placeBidOnAuction",
      "outputs": [],
      "stateMutability": "payable",
      "type": "function"
    },
    {
      "inputs": [
        {
          "internalType": "uint256",
          "name": "itemId",
          "type": "uint256"
        }
      ],
      "name": "withdrawBids",
      "outputs": [],
      "stateMutability": "payable",
      "type": "function"
    }
  ],
  "bytecode": "0x608060405266354a6ba7a1800060045534801561001b57600080fd5b50600160008190555033600360006101000a81548173ffffffffffffffffffffffffffffffffffffffff021916908373ffffffffffffffffffffffffffffffffffffffff160217905550612af7806100746000396000f3fe60806040526004361061009c5760003560e01c806362ea82db1161006457806362ea82db1461015a57806381b3fc23146101975780638da5cb5b146101c0578063c78f19f9146101eb578063edb5f90514610216578063f064c32e146102325761009c565b80630f08efe0146100a157806312e85585146100cc578063202e3740146100f75780634badb1ec1461012257806358eb2df51461013e575b600080fd5b3480156100ad57600080fd5b506100b661025d565b6040516100c39190612510565b60405180910390f35b3480156100d857600080fd5b506100e161062a565b6040516100ee91906126b2565b60405180910390f35b34801561010357600080fd5b5061010c610634565b6040516101199190612510565b60405180910390f35b61013c60048036038101906101379190611f69565b610a85565b005b61015860048036038101906101539190611fa5565b610e04565b005b34801561016657600080fd5b50610181600480360381019061017c9190611f40565b611273565b60405161018e91906126b2565b60405180910390f35b3480156101a357600080fd5b506101be60048036038101906101b99190611f69565b61128b565b005b3480156101cc57600080fd5b506101d5611722565b6040516101e291906123de565b60405180910390f35b3480156101f757600080fd5b50610200611748565b60405161020d91906126b2565b60405180910390f35b610230600480360381019061022b9190611ff4565b61174e565b005b34801561023e57600080fd5b506102476119e2565b6040516102549190612510565b60405180910390f35b6060600061026b6001611e33565b905060006102796002611e33565b6102836001611e33565b61028d9190612778565b90506000808267ffffffffffffffff8111156102d2577f4e487b7100000000000000000000000000000000000000000000000000000000600052604160045260246000fd5b60405190808252806020026020018201604052801561030b57816020015b6102f8611e57565b8152602001906001900390816102f05790505b50905060005b8481101561061f57600073ffffffffffffffffffffffffffffffffffffffff16600560006001846103429190612722565b815260200190815260200160002060040160009054906101000a900473ffffffffffffffffffffffffffffffffffffffff1673ffffffffffffffffffffffffffffffffffffffff16141561060c576000600560006001846103a39190612722565b815260200190815260200160002060000154905060006005600083815260200190815260200160002090508060405180610180016040529081600082015481526020016001820160009054906101000a900473ffffffffffffffffffffffffffffffffffffffff1673ffffffffffffffffffffffffffffffffffffffff1673ffffffffffffffffffffffffffffffffffffffff168152602001600282015481526020016003820160009054906101000a900473ffffffffffffffffffffffffffffffffffffffff1673ffffffffffffffffffffffffffffffffffffffff1673ffffffffffffffffffffffffffffffffffffffff1681526020016004820160009054906101000a900473ffffffffffffffffffffffffffffffffffffffff1673ffffffffffffffffffffffffffffffffffffffff1673ffffffffffffffffffffffffffffffffffffffff168152602001600582015481526020016006820160009054906101000a900460ff16151515158152602001600782015481526020016008820160009054906101000a900473ffffffffffffffffffffffffffffffffffffffff1673ffffffffffffffffffffffffffffffffffffffff1673ffffffffffffffffffffffffffffffffffffffff1681526020016008820160149054906101000a900460ff161515151581526020016008820160159054906101000a900460ff161515151581526020016009820154815250508486815181106105ef577f4e487b7100000000000000000000000000000000000000000000000000000000600052603260045260246000fd5b60200260200101819052506001856106079190612722565b945050505b808061061790612806565b915050610311565b508094505050505090565b6000600454905090565b606060006106426001611e33565b905060008060005b838110156106eb573373ffffffffffffffffffffffffffffffffffffffff166005600060018461067a9190612722565b815260200190815260200160002060040160009054906101000a900473ffffffffffffffffffffffffffffffffffffffff1673ffffffffffffffffffffffffffffffffffffffff1614156106d8576001836106d59190612722565b92505b80806106e390612806565b91505061064a565b5060008267ffffffffffffffff81111561072e577f4e487b7100000000000000000000000000000000000000000000000000000000600052604160045260246000fd5b60405190808252806020026020018201604052801561076757816020015b610754611e57565b81526020019060019003908161074c5790505b50905060005b84811015610a7a573373ffffffffffffffffffffffffffffffffffffffff166005600060018461079d9190612722565b815260200190815260200160002060040160009054906101000a900473ffffffffffffffffffffffffffffffffffffffff1673ffffffffffffffffffffffffffffffffffffffff161415610a67576000600560006001846107fe9190612722565b815260200190815260200160002060000154905060006005600083815260200190815260200160002090508060405180610180016040529081600082015481526020016001820160009054906101000a900473ffffffffffffffffffffffffffffffffffffffff1673ffffffffffffffffffffffffffffffffffffffff1673ffffffffffffffffffffffffffffffffffffffff168152602001600282015481526020016003820160009054906101000a900473ffffffffffffffffffffffffffffffffffffffff1673ffffffffffffffffffffffffffffffffffffffff1673ffffffffffffffffffffffffffffffffffffffff1681526020016004820160009054906101000a900473ffffffffffffffffffffffffffffffffffffffff1673ffffffffffffffffffffffffffffffffffffffff1673ffffffffffffffffffffffffffffffffffffffff168152602001600582015481526020016006820160009054906101000a900460ff16151515158152602001600782015481526020016008820160009054906101000a900473ffffffffffffffffffffffffffffffffffffffff1673ffffffffffffffffffffffffffffffffffffffff1673ffffffffffffffffffffffffffffffffffffffff1681526020016008820160149054906101000a900460ff161515151581526020016008820160159054906101000a900460ff16151515158152602001600982015481525050848681518110610a4a577f4e487b7100000000000000000000000000000000000000000000000000000000600052603260045260246000fd5b6020026020010181905250600185610a629190612722565b945050505b8080610a7290612806565b91505061076d565b508094505050505090565b60026000541415610acb576040517f08c379a0000000000000000000000000000000000000000000000000000000008152600401610ac290612652565b60405180910390fd5b600260008190555060006005600083815260200190815260200160002060020154905060006005600084815260200190815260200160002060070154905060006005600085815260200190815260200160002060080160009054906101000a900473ffffffffffffffffffffffffffffffffffffffff1690506000600560008681526020019081526020016000206009015490506005600086815260200190815260200160002060080160149054906101000a900460ff16610bc2576040517f08c379a0000000000000000000000000000000000000000000000000000000008152600401610bb990612572565b60405180910390fd5b60056000868152602001908152602001600020600901544210610c1a576040517f08c379a0000000000000000000000000000000000000000000000000000000008152600401610c1190612592565b60405180910390fd5b60056000868152602001908152602001600020600701543411610c72576040517f08c379a0000000000000000000000000000000000000000000000000000000008152600401610c6990612612565b60405180910390fd5b600073ffffffffffffffffffffffffffffffffffffffff166005600087815260200190815260200160002060080160009054906101000a900473ffffffffffffffffffffffffffffffffffffffff1673ffffffffffffffffffffffffffffffffffffffff1614610d7f576005600086815260200190815260200160002060070154600660006005600089815260200190815260200160002060080160009054906101000a900473ffffffffffffffffffffffffffffffffffffffff1673ffffffffffffffffffffffffffffffffffffffff1673ffffffffffffffffffffffffffffffffffffffff1681526020019081526020016000206000828254610d779190612722565b925050819055505b3492503391508173ffffffffffffffffffffffffffffffffffffffff16848773ffffffffffffffffffffffffffffffffffffffff167f6a082bd94c9a90ccdbd03a7ff9ca49e389ca6e3edeac1e3af7f3c09d122b8991336000808988604051610dec9594939291906123f9565b60405180910390a45050505060016000819055505050565b60026000541415610e4a576040517f08c379a0000000000000000000000000000000000000000000000000000000008152600401610e4190612652565b60405180910390fd5b600260008190555060008111610e95576040517f08c379a0000000000000000000000000000000000000000000000000000000008152600401610e8c90612552565b60405180910390fd5b6004543414610ed9576040517f08c379a0000000000000000000000000000000000000000000000000000000008152600401610ed0906125f2565b60405180910390fd5b610ee36001611e41565b6000610eef6001611e33565b90506000829050600033905060006001905060006202a30042610f129190612722565b90506040518061018001604052808681526020018973ffffffffffffffffffffffffffffffffffffffff1681526020018881526020013373ffffffffffffffffffffffffffffffffffffffff168152602001600073ffffffffffffffffffffffffffffffffffffffff1681526020018781526020016000151581526020018581526020018473ffffffffffffffffffffffffffffffffffffffff168152602001831515815260200160001515815260200182815250600560008781526020019081526020016000206000820151816000015560208201518160010160006101000a81548173ffffffffffffffffffffffffffffffffffffffff021916908373ffffffffffffffffffffffffffffffffffffffff1602179055506040820151816002015560608201518160030160006101000a81548173ffffffffffffffffffffffffffffffffffffffff021916908373ffffffffffffffffffffffffffffffffffffffff16021790555060808201518160040160006101000a81548173ffffffffffffffffffffffffffffffffffffffff021916908373ffffffffffffffffffffffffffffffffffffffff16021790555060a0820151816005015560c08201518160060160006101000a81548160ff02191690831515021790555060e082015181600701556101008201518160080160006101000a81548173ffffffffffffffffffffffffffffffffffffffff021916908373ffffffffffffffffffffffffffffffffffffffff1602179055506101208201518160080160146101000a81548160ff0219169083151502179055506101408201518160080160156101000a81548160ff02191690831515021790555061016082015181600901559050508773ffffffffffffffffffffffffffffffffffffffff166342842e0e33308a6040518463ffffffff1660e01b81526004016111cc9392919061244c565b600060405180830381600087803b1580156111e657600080fd5b505af11580156111fa573d6000803e3d6000fd5b50505050868873ffffffffffffffffffffffffffffffffffffffff16867f50accedd7c37ba7bd20910e3870947326a0bae4901ff0a72aa3274b5f6298bd73360008b60008b8b8b60008c60405161125999989796959493929190612483565b60405180910390a450505050506001600081905550505050565b60066020528060005260406000206000915090505481565b600260005414156112d1576040517f08c379a00000000000000000000000000000000000000000000000000000000081526004016112c890612652565b60405180910390fd5b600260008190555060006005600083815260200190815260200160002060020154905060006005600084815260200190815260200160002060050154905060006005600085815260200190815260200160002060080160149054906101000a900460ff16905060006005600086815260200190815260200160002060090154905060006005600087815260200190815260200160002060080160009054906101000a900473ffffffffffffffffffffffffffffffffffffffff1690506000600560008881526020019081526020016000206007015490506005600088815260200190815260200160002060080160149054906101000a900460ff1661140b576040517f08c379a000000000000000000000000000000000000000000000000000000000815260040161140290612692565b60405180910390fd5b6005600088815260200190815260200160002060090154421015611464576040517f08c379a000000000000000000000000000000000000000000000000000000000815260040161145b90612532565b60405180910390fd5b6005600088815260200190815260200160002060080160159054906101000a900460ff16156114c8576040517f08c379a00000000000000000000000000000000000000000000000000000000081526004016114bf90612632565b60405180910390fd5b600073ffffffffffffffffffffffffffffffffffffffff166005600089815260200190815260200160002060080160009054906101000a900473ffffffffffffffffffffffffffffffffffffffff1673ffffffffffffffffffffffffffffffffffffffff16146116ad576005600088815260200190815260200160002060030160009054906101000a900473ffffffffffffffffffffffffffffffffffffffff1673ffffffffffffffffffffffffffffffffffffffff166108fc829081150290604051600060405180830381858888f193505050501580156115ae573d6000803e3d6000fd5b508773ffffffffffffffffffffffffffffffffffffffff166323b872dd3084896040518463ffffffff1660e01b81526004016115ec9392919061244c565b600060405180830381600087803b15801561160657600080fd5b505af115801561161a573d6000803e3d6000fd5b50505050816005600089815260200190815260200160002060040160006101000a81548173ffffffffffffffffffffffffffffffffffffffff021916908373ffffffffffffffffffffffffffffffffffffffff16021790555060016005600089815260200190815260200160002060060160006101000a81548160ff0219169083151502179055506116ac6002611e41565b5b858873ffffffffffffffffffffffffffffffffffffffff16887f50accedd7c37ba7bd20910e3870947326a0bae4901ff0a72aa3274b5f6298bd73360008a6000888a8d60008e60405161170899989796959493929190612483565b60405180910390a450505050505060016000819055505050565b600360009054906101000a900473ffffffffffffffffffffffffffffffffffffffff1681565b60045481565b60006005600083815260200190815260200160002060070154905060006005600084815260200190815260200160002060030160009054906101000a900473ffffffffffffffffffffffffffffffffffffffff1690506000600660003373ffffffffffffffffffffffffffffffffffffffff1673ffffffffffffffffffffffffffffffffffffffff16815260200190815260200160002054905082811061182a576040517f08c379a0000000000000000000000000000000000000000000000000000000008152600401611821906125b2565b60405180910390fd5b8173ffffffffffffffffffffffffffffffffffffffff163373ffffffffffffffffffffffffffffffffffffffff161415611899576040517f08c379a0000000000000000000000000000000000000000000000000000000008152600401611890906125d2565b60405180910390fd5b6000600660003373ffffffffffffffffffffffffffffffffffffffff1673ffffffffffffffffffffffffffffffffffffffff168152602001908152602001600020819055506000803373ffffffffffffffffffffffffffffffffffffffff1683604051611905906123c9565b60006040518083038185875af1925050503d8060008114611942576040519150601f19603f3d011682016040523d82523d6000602084013e611947565b606091505b50915091508161198c576040517f08c379a000000000000000000000000000000000000000000000000000000000815260040161198390612672565b60405180910390fd5b3373ffffffffffffffffffffffffffffffffffffffff167fbd534d3467660b93e3889762d2f386716c59899db5ea180d724f2c07955a7cf7846040516119d291906126b2565b60405180910390a2505050505050565b606060006119f06001611e33565b905060008060005b83811015611a99573373ffffffffffffffffffffffffffffffffffffffff1660056000600184611a289190612722565b815260200190815260200160002060030160009054906101000a900473ffffffffffffffffffffffffffffffffffffffff1673ffffffffffffffffffffffffffffffffffffffff161415611a8657600183611a839190612722565b92505b8080611a9190612806565b9150506119f8565b5060008267ffffffffffffffff811115611adc577f4e487b7100000000000000000000000000000000000000000000000000000000600052604160045260246000fd5b604051908082528060200260200182016040528015611b1557816020015b611b02611e57565b815260200190600190039081611afa5790505b50905060005b84811015611e28573373ffffffffffffffffffffffffffffffffffffffff1660056000600184611b4b9190612722565b815260200190815260200160002060030160009054906101000a900473ffffffffffffffffffffffffffffffffffffffff1673ffffffffffffffffffffffffffffffffffffffff161415611e1557600060056000600184611bac9190612722565b815260200190815260200160002060000154905060006005600083815260200190815260200160002090508060405180610180016040529081600082015481526020016001820160009054906101000a900473ffffffffffffffffffffffffffffffffffffffff1673ffffffffffffffffffffffffffffffffffffffff1673ffffffffffffffffffffffffffffffffffffffff168152602001600282015481526020016003820160009054906101000a900473ffffffffffffffffffffffffffffffffffffffff1673ffffffffffffffffffffffffffffffffffffffff1673ffffffffffffffffffffffffffffffffffffffff1681526020016004820160009054906101000a900473ffffffffffffffffffffffffffffffffffffffff1673ffffffffffffffffffffffffffffffffffffffff1673ffffffffffffffffffffffffffffffffffffffff168152602001600582015481526020016006820160009054906101000a900460ff16151515158152602001600782015481526020016008820160009054906101000a900473ffffffffffffffffffffffffffffffffffffffff1673ffffffffffffffffffffffffffffffffffffffff1673ffffffffffffffffffffffffffffffffffffffff1681526020016008820160149054906101000a900460ff161515151581526020016008820160159054906101000a900460ff16151515158152602001600982015481525050848681518110611df8577f4e487b7100000000000000000000000000000000000000000000000000000000600052603260045260246000fd5b6020026020010181905250600185611e109190612722565b945050505b8080611e2090612806565b915050611b1b565b508094505050505090565b600081600001549050919050565b6001816000016000828254019250508190555050565b60405180610180016040528060008152602001600073ffffffffffffffffffffffffffffffffffffffff16815260200160008152602001600073ffffffffffffffffffffffffffffffffffffffff168152602001600073ffffffffffffffffffffffffffffffffffffffff1681526020016000815260200160001515815260200160008152602001600073ffffffffffffffffffffffffffffffffffffffff168152602001600015158152602001600015158152602001600081525090565b600081359050611f2581612a93565b92915050565b600081359050611f3a81612aaa565b92915050565b600060208284031215611f5257600080fd5b6000611f6084828501611f16565b91505092915050565b60008060408385031215611f7c57600080fd5b6000611f8a85828601611f16565b9250506020611f9b85828601611f2b565b9150509250929050565b600080600060608486031215611fba57600080fd5b6000611fc886828701611f16565b9350506020611fd986828701611f2b565b9250506040611fea86828701611f2b565b9150509250925092565b60006020828403121561200657600080fd5b600061201484828501611f2b565b91505092915050565b600061202983836122b5565b6101808301905092915050565b61203f816127be565b82525050565b61204e816127be565b82525050565b61205d816127ac565b82525050565b61206c816127ac565b82525050565b600061207d826126dd565b61208781856126f5565b9350612092836126cd565b8060005b838110156120c35781516120aa888261201d565b97506120b5836126e8565b925050600181019050612096565b5085935050505092915050565b6120d9816127d0565b82525050565b6120e8816127d0565b82525050565b60006120fb601983612711565b91506121068261287e565b602082019050919050565b600061211e601b83612711565b9150612129826128a7565b602082019050919050565b6000612141600b83612711565b915061214c826128d0565b602082019050919050565b6000612164600683612711565b915061216f826128f9565b602082019050919050565b6000612187601b83612711565b915061219282612922565b602082019050919050565b60006121aa601383612711565b91506121b58261294b565b602082019050919050565b60006121cd602483612711565b91506121d882612974565b604082019050919050565b60006121f0600083612706565b91506121fb826129c3565b600082019050919050565b6000612213601d83612711565b915061221e826129c6565b602082019050919050565b6000612236601683612711565b9150612241826129ef565b602082019050919050565b6000612259601f83612711565b915061226482612a18565b602082019050919050565b600061227c601283612711565b915061228782612a41565b602082019050919050565b600061229f601483612711565b91506122aa82612a6a565b602082019050919050565b610180820160008201516122cc60008501826123ab565b5060208201516122df6020850182612054565b5060408201516122f260408501826123ab565b5060608201516123056060850182612036565b5060808201516123186080850182612036565b5060a082015161232b60a08501826123ab565b5060c082015161233e60c08501826120d0565b5060e082015161235160e08501826123ab565b50610100820151612366610100850182612054565b5061012082015161237b6101208501826120d0565b506101408201516123906101408501826120d0565b506101608201516123a56101608501826123ab565b50505050565b6123b4816127fc565b82525050565b6123c3816127fc565b82525050565b60006123d4826121e3565b9150819050919050565b60006020820190506123f36000830184612045565b92915050565b600060a08201905061240e6000830188612063565b61241b6020830187612063565b61242860408301866120df565b61243560608301856123ba565b61244260808301846123ba565b9695505050505050565b60006060820190506124616000830186612063565b61246e6020830185612063565b61247b60408301846123ba565b949350505050565b600061012082019050612499600083018c612063565b6124a6602083018b612063565b6124b3604083018a6123ba565b6124c060608301896120df565b6124cd60808301886123ba565b6124da60a0830187612063565b6124e760c08301866120df565b6124f460e08301856120df565b6125026101008301846123ba565b9a9950505050505050505050565b6000602082019050818103600083015261252a8184612072565b905092915050565b6000602082019050818103600083015261254b816120ee565b9050919050565b6000602082019050818103600083015261256b81612111565b9050919050565b6000602082019050818103600083015261258b81612134565b9050919050565b600060208201905081810360008301526125ab81612157565b9050919050565b600060208201905081810360008301526125cb8161217a565b9050919050565b600060208201905081810360008301526125eb8161219d565b9050919050565b6000602082019050818103600083015261260b816121c0565b9050919050565b6000602082019050818103600083015261262b81612206565b9050919050565b6000602082019050818103600083015261264b81612229565b9050919050565b6000602082019050818103600083015261266b8161224c565b9050919050565b6000602082019050818103600083015261268b8161226f565b9050919050565b600060208201905081810360008301526126ab81612292565b9050919050565b60006020820190506126c760008301846123ba565b92915050565b6000819050602082019050919050565b600081519050919050565b6000602082019050919050565b600082825260208201905092915050565b600081905092915050565b600082825260208201905092915050565b600061272d826127fc565b9150612738836127fc565b9250827fffffffffffffffffffffffffffffffffffffffffffffffffffffffffffffffff0382111561276d5761276c61284f565b5b828201905092915050565b6000612783826127fc565b915061278e836127fc565b9250828210156127a1576127a061284f565b5b828203905092915050565b60006127b7826127dc565b9050919050565b60006127c9826127dc565b9050919050565b60008115159050919050565b600073ffffffffffffffffffffffffffffffffffffffff82169050919050565b6000819050919050565b6000612811826127fc565b91507fffffffffffffffffffffffffffffffffffffffffffffffffffffffffffffffff8214156128445761284361284f565b5b600182019050919050565b7f4e487b7100000000000000000000000000000000000000000000000000000000600052601160045260246000fd5b7f41756374696f6e207374696c6c20696e2070726f677265737300000000000000600082015250565b7f5072696365206d7573742062652061746c656173742031207765690000000000600082015250565b7f4e6f742053746172746564000000000000000000000000000000000000000000600082015250565b7f456e646564210000000000000000000000000000000000000000000000000000600082015250565b7f596f752061726520746865206869676865737420626964646572210000000000600082015250565b7f596f7520617265207468652073656c6c65722100000000000000000000000000600082015250565b7f5072696365206d75737420626520657175616c20746f206c697374696e67207060008201527f7269636500000000000000000000000000000000000000000000000000000000602082015250565b50565b7f426964206973206c6f776572207468616e206869676865737420626964000000600082015250565b7f41756374696f6e20616c726561647920656e6465642100000000000000000000600082015250565b7f5265656e7472616e637947756172643a207265656e7472616e742063616c6c00600082015250565b7f436f756c64206e6f742077697468647261770000000000000000000000000000600082015250565b7f41756374696f6e206e6f74207374617274656421000000000000000000000000600082015250565b612a9c816127ac565b8114612aa757600080fd5b50565b612ab3816127fc565b8114612abe57600080fd5b5056fea26469706673582212206c990d874de196e3bb6d74ae3aeac592d206ad982e0f53b6de1e99b641bca4b064736f6c63430008040033",
  "linkReferences": {},
  "deployedLinkReferences": {}
}