{
  "_format": "hh-sol-artifact-1",
  "contractName": "Market",
  "sourceName": "contracts/Market.sol",
  "abi": [
    {
      "inputs": [],
      "stateMutability": "nonpayable",
      "type": "constructor"
    },
    {
      "anonymous": false,
      "inputs": [
        {
          "indexed": true,
          "internalType": "address",
          "name": "sender",
          "type": "address"
        },
        {
          "indexed": false,
          "internalType": "uint256",
          "name": "amount",
          "type": "uint256"
        }
      ],
      "name": "Bid",
      "type": "event"
    },
    {
      "anonymous": false,
      "inputs": [
        {
          "indexed": false,
          "internalType": "address",
          "name": "highestBidder",
          "type": "address"
        },
        {
          "indexed": false,
          "internalType": "uint256",
          "name": "highestBid",
          "type": "uint256"
        }
      ],
      "name": "End",
      "type": "event"
    },
    {
      "anonymous": false,
      "inputs": [
        {
          "indexed": true,
          "internalType": "uint256",
          "name": "itemId",
          "type": "uint256"
        },
        {
          "indexed": true,
          "internalType": "address",
          "name": "nftContract",
          "type": "address"
        },
        {
          "indexed": true,
          "internalType": "uint256",
          "name": "tokenId",
          "type": "uint256"
        },
        {
          "indexed": false,
          "internalType": "address",
          "name": "seller",
          "type": "address"
        },
        {
          "indexed": false,
          "internalType": "address",
          "name": "owner",
          "type": "address"
        },
        {
          "indexed": false,
          "internalType": "uint256",
          "name": "price",
          "type": "uint256"
        },
        {
          "indexed": false,
          "internalType": "bool",
          "name": "sold",
          "type": "bool"
        },
        {
          "indexed": false,
          "internalType": "uint256",
          "name": "highestBid",
          "type": "uint256"
        },
        {
          "indexed": false,
          "internalType": "address",
          "name": "highestBidder",
          "type": "address"
        },
        {
          "indexed": false,
          "internalType": "bool",
          "name": "started",
          "type": "bool"
        },
        {
          "indexed": false,
          "internalType": "bool",
          "name": "ended",
          "type": "bool"
        },
        {
          "indexed": false,
          "internalType": "uint256",
          "name": "endTime",
          "type": "uint256"
        }
      ],
      "name": "MarketItemCreatedOrAuctionEnded",
      "type": "event"
    },
    {
      "anonymous": false,
      "inputs": [
        {
          "indexed": true,
          "internalType": "address",
          "name": "nftContract",
          "type": "address"
        },
        {
          "indexed": true,
          "internalType": "uint256",
          "name": "tokenId",
          "type": "uint256"
        },
        {
          "indexed": false,
          "internalType": "address",
          "name": "seller",
          "type": "address"
        },
        {
          "indexed": false,
          "internalType": "address",
          "name": "owner",
          "type": "address"
        },
        {
          "indexed": false,
          "internalType": "bool",
          "name": "sold",
          "type": "bool"
        },
        {
          "indexed": false,
          "internalType": "uint256",
          "name": "highestBid",
          "type": "uint256"
        },
        {
          "indexed": true,
          "internalType": "address",
          "name": "highestBidder",
          "type": "address"
        },
        {
          "indexed": false,
          "internalType": "uint256",
          "name": "endTime",
          "type": "uint256"
        }
      ],
      "name": "NewBidPlaced",
      "type": "event"
    },
    {
      "anonymous": false,
      "inputs": [
        {
          "indexed": true,
          "internalType": "address",
          "name": "bidder",
          "type": "address"
        },
        {
          "indexed": false,
          "internalType": "uint256",
          "name": "amount",
          "type": "uint256"
        }
      ],
      "name": "WithdrawBid",
      "type": "event"
    },
    {
      "inputs": [
        {
          "internalType": "address",
          "name": "",
          "type": "address"
        }
      ],
      "name": "bids",
      "outputs": [
        {
          "internalType": "uint256",
          "name": "",
          "type": "uint256"
        }
      ],
      "stateMutability": "view",
      "type": "function"
    },
    {
      "inputs": [
        {
          "internalType": "address",
          "name": "nftContract",
          "type": "address"
        },
        {
          "internalType": "uint256",
          "name": "tokenId",
          "type": "uint256"
        },
        {
          "internalType": "uint256",
          "name": "price",
          "type": "uint256"
        },
        {
          "internalType": "uint256",
          "name": "time",
          "type": "uint256"
        }
      ],
      "name": "createMarketItem",
      "outputs": [],
      "stateMutability": "payable",
      "type": "function"
    },
    {
      "inputs": [
        {
          "internalType": "address",
          "name": "nftContract",
          "type": "address"
        },
        {
          "internalType": "uint256",
          "name": "itemId",
          "type": "uint256"
        }
      ],
      "name": "endMarketAuction",
      "outputs": [],
      "stateMutability": "nonpayable",
      "type": "function"
    },
    {
      "inputs": [],
      "name": "fetchItemsCreated",
      "outputs": [
        {
          "components": [
            {
              "internalType": "uint256",
              "name": "itemId",
              "type": "uint256"
            },
            {
              "internalType": "address",
              "name": "nftContract",
              "type": "address"
            },
            {
              "internalType": "uint256",
              "name": "tokenId",
              "type": "uint256"
            },
            {
              "internalType": "address payable",
              "name": "seller",
              "type": "address"
            },
            {
              "internalType": "address payable",
              "name": "owner",
              "type": "address"
            },
            {
              "internalType": "uint256",
              "name": "price",
              "type": "uint256"
            },
            {
              "internalType": "bool",
              "name": "sold",
              "type": "bool"
            },
            {
              "internalType": "uint256",
              "name": "highestBid",
              "type": "uint256"
            },
            {
              "internalType": "address",
              "name": "highestBidder",
              "type": "address"
            },
            {
              "internalType": "bool",
              "name": "started",
              "type": "bool"
            },
            {
              "internalType": "bool",
              "name": "ended",
              "type": "bool"
            },
            {
              "internalType": "uint256",
              "name": "endTime",
              "type": "uint256"
            }
          ],
          "internalType": "struct Market.MarketItem[]",
          "name": "",
          "type": "tuple[]"
        }
      ],
      "stateMutability": "view",
      "type": "function"
    },
    {
      "inputs": [],
      "name": "fetchMarketItems",
      "outputs": [
        {
          "components": [
            {
              "internalType": "uint256",
              "name": "itemId",
              "type": "uint256"
            },
            {
              "internalType": "address",
              "name": "nftContract",
              "type": "address"
            },
            {
              "internalType": "uint256",
              "name": "tokenId",
              "type": "uint256"
            },
            {
              "internalType": "address payable",
              "name": "seller",
              "type": "address"
            },
            {
              "internalType": "address payable",
              "name": "owner",
              "type": "address"
            },
            {
              "internalType": "uint256",
              "name": "price",
              "type": "uint256"
            },
            {
              "internalType": "bool",
              "name": "sold",
              "type": "bool"
            },
            {
              "internalType": "uint256",
              "name": "highestBid",
              "type": "uint256"
            },
            {
              "internalType": "address",
              "name": "highestBidder",
              "type": "address"
            },
            {
              "internalType": "bool",
              "name": "started",
              "type": "bool"
            },
            {
              "internalType": "bool",
              "name": "ended",
              "type": "bool"
            },
            {
              "internalType": "uint256",
              "name": "endTime",
              "type": "uint256"
            }
          ],
          "internalType": "struct Market.MarketItem[]",
          "name": "",
          "type": "tuple[]"
        }
      ],
      "stateMutability": "view",
      "type": "function"
    },
    {
      "inputs": [],
      "name": "fetchMyNFTs",
      "outputs": [
        {
          "components": [
            {
              "internalType": "uint256",
              "name": "itemId",
              "type": "uint256"
            },
            {
              "internalType": "address",
              "name": "nftContract",
              "type": "address"
            },
            {
              "internalType": "uint256",
              "name": "tokenId",
              "type": "uint256"
            },
            {
              "internalType": "address payable",
              "name": "seller",
              "type": "address"
            },
            {
              "internalType": "address payable",
              "name": "owner",
              "type": "address"
            },
            {
              "internalType": "uint256",
              "name": "price",
              "type": "uint256"
            },
            {
              "internalType": "bool",
              "name": "sold",
              "type": "bool"
            },
            {
              "internalType": "uint256",
              "name": "highestBid",
              "type": "uint256"
            },
            {
              "internalType": "address",
              "name": "highestBidder",
              "type": "address"
            },
            {
              "internalType": "bool",
              "name": "started",
              "type": "bool"
            },
            {
              "internalType": "bool",
              "name": "ended",
              "type": "bool"
            },
            {
              "internalType": "uint256",
              "name": "endTime",
              "type": "uint256"
            }
          ],
          "internalType": "struct Market.MarketItem[]",
          "name": "",
          "type": "tuple[]"
        }
      ],
      "stateMutability": "view",
      "type": "function"
    },
    {
      "inputs": [],
      "name": "getListingPrice",
      "outputs": [
        {
          "internalType": "uint256",
          "name": "",
          "type": "uint256"
        }
      ],
      "stateMutability": "view",
      "type": "function"
    },
    {
      "inputs": [],
      "name": "listingPrice",
      "outputs": [
        {
          "internalType": "uint256",
          "name": "",
          "type": "uint256"
        }
      ],
      "stateMutability": "view",
      "type": "function"
    },
    {
      "inputs": [],
      "name": "owner",
      "outputs": [
        {
          "internalType": "address payable",
          "name": "",
          "type": "address"
        }
      ],
      "stateMutability": "view",
      "type": "function"
    },
    {
      "inputs": [
        {
          "internalType": "address",
          "name": "nftContract",
          "type": "address"
        },
        {
          "internalType": "uint256",
          "name": "itemId",
          "type": "uint256"
        },
        {
          "internalType": "uint256",
          "name": "bid",
          "type": "uint256"
        }
      ],
      "name": "placeBidOnAuction",
      "outputs": [],
      "stateMutability": "payable",
      "type": "function"
    },
    {
      "inputs": [
        {
          "internalType": "uint256",
          "name": "itemId",
          "type": "uint256"
        }
      ],
      "name": "withdrawBids",
      "outputs": [],
      "stateMutability": "payable",
      "type": "function"
    }
  ],
  "bytecode": "0x608060405266354a6ba7a1800060045534801561001b57600080fd5b50600160008190555033600360006101000a81548173ffffffffffffffffffffffffffffffffffffffff021916908373ffffffffffffffffffffffffffffffffffffffff160217905550612bb8806100746000396000f3fe60806040526004361061009c5760003560e01c806381b3fc231161006457806381b3fc231461017b5780638da5cb5b146101a4578063c78f19f9146101cf578063e346c7da146101fa578063edb5f90514610216578063f064c32e146102325761009c565b80630f08efe0146100a157806312e85585146100cc578063202e3740146100f7578063599ba2341461012257806362ea82db1461013e575b600080fd5b3480156100ad57600080fd5b506100b661025d565b6040516100c391906125d1565b60405180910390f35b3480156100d857600080fd5b506100e161062a565b6040516100ee9190612773565b60405180910390f35b34801561010357600080fd5b5061010c610634565b60405161011991906125d1565b60405180910390f35b61013c60048036038101906101379190612052565b610a85565b005b34801561014a57600080fd5b5061016560048036038101906101609190611f9e565b610ee7565b6040516101729190612773565b60405180910390f35b34801561018757600080fd5b506101a2600480360381019061019d9190611fc7565b610eff565b005b3480156101b057600080fd5b506101b9611396565b6040516101c6919061249f565b60405180910390f35b3480156101db57600080fd5b506101e46113bc565b6040516101f19190612773565b60405180910390f35b610214600480360381019061020f9190612003565b6113c2565b005b610230600480360381019061022b91906120b5565b6117ac565b005b34801561023e57600080fd5b50610247611a40565b60405161025491906125d1565b60405180910390f35b6060600061026b6001611e91565b905060006102796002611e91565b6102836001611e91565b61028d9190612839565b90506000808267ffffffffffffffff8111156102d2577f4e487b7100000000000000000000000000000000000000000000000000000000600052604160045260246000fd5b60405190808252806020026020018201604052801561030b57816020015b6102f8611eb5565b8152602001906001900390816102f05790505b50905060005b8481101561061f57600073ffffffffffffffffffffffffffffffffffffffff166005600060018461034291906127e3565b815260200190815260200160002060040160009054906101000a900473ffffffffffffffffffffffffffffffffffffffff1673ffffffffffffffffffffffffffffffffffffffff16141561060c576000600560006001846103a391906127e3565b815260200190815260200160002060000154905060006005600083815260200190815260200160002090508060405180610180016040529081600082015481526020016001820160009054906101000a900473ffffffffffffffffffffffffffffffffffffffff1673ffffffffffffffffffffffffffffffffffffffff1673ffffffffffffffffffffffffffffffffffffffff168152602001600282015481526020016003820160009054906101000a900473ffffffffffffffffffffffffffffffffffffffff1673ffffffffffffffffffffffffffffffffffffffff1673ffffffffffffffffffffffffffffffffffffffff1681526020016004820160009054906101000a900473ffffffffffffffffffffffffffffffffffffffff1673ffffffffffffffffffffffffffffffffffffffff1673ffffffffffffffffffffffffffffffffffffffff168152602001600582015481526020016006820160009054906101000a900460ff16151515158152602001600782015481526020016008820160009054906101000a900473ffffffffffffffffffffffffffffffffffffffff1673ffffffffffffffffffffffffffffffffffffffff1673ffffffffffffffffffffffffffffffffffffffff1681526020016008820160149054906101000a900460ff161515151581526020016008820160159054906101000a900460ff161515151581526020016009820154815250508486815181106105ef577f4e487b7100000000000000000000000000000000000000000000000000000000600052603260045260246000fd5b602002602001018190525060018561060791906127e3565b945050505b8080610617906128c7565b915050610311565b508094505050505090565b6000600454905090565b606060006106426001611e91565b905060008060005b838110156106eb573373ffffffffffffffffffffffffffffffffffffffff166005600060018461067a91906127e3565b815260200190815260200160002060040160009054906101000a900473ffffffffffffffffffffffffffffffffffffffff1673ffffffffffffffffffffffffffffffffffffffff1614156106d8576001836106d591906127e3565b92505b80806106e3906128c7565b91505061064a565b5060008267ffffffffffffffff81111561072e577f4e487b7100000000000000000000000000000000000000000000000000000000600052604160045260246000fd5b60405190808252806020026020018201604052801561076757816020015b610754611eb5565b81526020019060019003908161074c5790505b50905060005b84811015610a7a573373ffffffffffffffffffffffffffffffffffffffff166005600060018461079d91906127e3565b815260200190815260200160002060040160009054906101000a900473ffffffffffffffffffffffffffffffffffffffff1673ffffffffffffffffffffffffffffffffffffffff161415610a67576000600560006001846107fe91906127e3565b815260200190815260200160002060000154905060006005600083815260200190815260200160002090508060405180610180016040529081600082015481526020016001820160009054906101000a900473ffffffffffffffffffffffffffffffffffffffff1673ffffffffffffffffffffffffffffffffffffffff1673ffffffffffffffffffffffffffffffffffffffff168152602001600282015481526020016003820160009054906101000a900473ffffffffffffffffffffffffffffffffffffffff1673ffffffffffffffffffffffffffffffffffffffff1673ffffffffffffffffffffffffffffffffffffffff1681526020016004820160009054906101000a900473ffffffffffffffffffffffffffffffffffffffff1673ffffffffffffffffffffffffffffffffffffffff1673ffffffffffffffffffffffffffffffffffffffff168152602001600582015481526020016006820160009054906101000a900460ff16151515158152602001600782015481526020016008820160009054906101000a900473ffffffffffffffffffffffffffffffffffffffff1673ffffffffffffffffffffffffffffffffffffffff1673ffffffffffffffffffffffffffffffffffffffff1681526020016008820160149054906101000a900460ff161515151581526020016008820160159054906101000a900460ff16151515158152602001600982015481525050848681518110610a4a577f4e487b7100000000000000000000000000000000000000000000000000000000600052603260045260246000fd5b6020026020010181905250600185610a6291906127e3565b945050505b8080610a72906128c7565b91505061076d565b508094505050505090565b60026000541415610acb576040517f08c379a0000000000000000000000000000000000000000000000000000000008152600401610ac290612713565b60405180910390fd5b600260008190555060008211610b16576040517f08c379a0000000000000000000000000000000000000000000000000000000008152600401610b0d90612613565b60405180910390fd5b6004543414610b5a576040517f08c379a0000000000000000000000000000000000000000000000000000000008152600401610b51906126b3565b60405180910390fd5b610b646001611e9f565b6000610b706001611e91565b90506000839050600033905060006001905060008590506040518061018001604052808681526020018a73ffffffffffffffffffffffffffffffffffffffff1681526020018981526020013373ffffffffffffffffffffffffffffffffffffffff168152602001600073ffffffffffffffffffffffffffffffffffffffff1681526020018881526020016000151581526020018581526020018473ffffffffffffffffffffffffffffffffffffffff168152602001831515815260200160001515815260200182815250600560008781526020019081526020016000206000820151816000015560208201518160010160006101000a81548173ffffffffffffffffffffffffffffffffffffffff021916908373ffffffffffffffffffffffffffffffffffffffff1602179055506040820151816002015560608201518160030160006101000a81548173ffffffffffffffffffffffffffffffffffffffff021916908373ffffffffffffffffffffffffffffffffffffffff16021790555060808201518160040160006101000a81548173ffffffffffffffffffffffffffffffffffffffff021916908373ffffffffffffffffffffffffffffffffffffffff16021790555060a0820151816005015560c08201518160060160006101000a81548160ff02191690831515021790555060e082015181600701556101008201518160080160006101000a81548173ffffffffffffffffffffffffffffffffffffffff021916908373ffffffffffffffffffffffffffffffffffffffff1602179055506101208201518160080160146101000a81548160ff0219169083151502179055506101408201518160080160156101000a81548160ff02191690831515021790555061016082015181600901559050508873ffffffffffffffffffffffffffffffffffffffff166323b872dd33308b6040518463ffffffff1660e01b8152600401610e3f9392919061250d565b600060405180830381600087803b158015610e5957600080fd5b505af1158015610e6d573d6000803e3d6000fd5b50505050878973ffffffffffffffffffffffffffffffffffffffff16867f50accedd7c37ba7bd20910e3870947326a0bae4901ff0a72aa3274b5f6298bd73360008c60008b8b8b60008c604051610ecc99989796959493929190612544565b60405180910390a45050505050600160008190555050505050565b60066020528060005260406000206000915090505481565b60026000541415610f45576040517f08c379a0000000000000000000000000000000000000000000000000000000008152600401610f3c90612713565b60405180910390fd5b600260008190555060006005600083815260200190815260200160002060020154905060006005600084815260200190815260200160002060050154905060006005600085815260200190815260200160002060080160149054906101000a900460ff16905060006005600086815260200190815260200160002060090154905060006005600087815260200190815260200160002060080160009054906101000a900473ffffffffffffffffffffffffffffffffffffffff1690506000600560008881526020019081526020016000206007015490506005600088815260200190815260200160002060080160149054906101000a900460ff1661107f576040517f08c379a000000000000000000000000000000000000000000000000000000000815260040161107690612753565b60405180910390fd5b60056000888152602001908152602001600020600901544210156110d8576040517f08c379a00000000000000000000000000000000000000000000000000000000081526004016110cf906125f3565b60405180910390fd5b6005600088815260200190815260200160002060080160159054906101000a900460ff161561113c576040517f08c379a0000000000000000000000000000000000000000000000000000000008152600401611133906126f3565b60405180910390fd5b600073ffffffffffffffffffffffffffffffffffffffff166005600089815260200190815260200160002060080160009054906101000a900473ffffffffffffffffffffffffffffffffffffffff1673ffffffffffffffffffffffffffffffffffffffff1614611321576005600088815260200190815260200160002060030160009054906101000a900473ffffffffffffffffffffffffffffffffffffffff1673ffffffffffffffffffffffffffffffffffffffff166108fc829081150290604051600060405180830381858888f19350505050158015611222573d6000803e3d6000fd5b508773ffffffffffffffffffffffffffffffffffffffff166323b872dd3084896040518463ffffffff1660e01b81526004016112609392919061250d565b600060405180830381600087803b15801561127a57600080fd5b505af115801561128e573d6000803e3d6000fd5b50505050816005600089815260200190815260200160002060040160006101000a81548173ffffffffffffffffffffffffffffffffffffffff021916908373ffffffffffffffffffffffffffffffffffffffff16021790555060016005600089815260200190815260200160002060060160006101000a81548160ff0219169083151502179055506113206002611e9f565b5b858873ffffffffffffffffffffffffffffffffffffffff16887f50accedd7c37ba7bd20910e3870947326a0bae4901ff0a72aa3274b5f6298bd73360008a6000888a8d60008e60405161137c99989796959493929190612544565b60405180910390a450505050505060016000819055505050565b600360009054906101000a900473ffffffffffffffffffffffffffffffffffffffff1681565b60045481565b60026000541415611408576040517f08c379a00000000000000000000000000000000000000000000000000000000081526004016113ff90612713565b60405180910390fd5b600260008190555060006005600084815260200190815260200160002060020154905060006005600085815260200190815260200160002060070154905060006005600086815260200190815260200160002060080160009054906101000a900473ffffffffffffffffffffffffffffffffffffffff1690506000600560008781526020019081526020016000206009015490506005600087815260200190815260200160002060080160149054906101000a900460ff166114ff576040517f08c379a00000000000000000000000000000000000000000000000000000000081526004016114f690612633565b60405180910390fd5b60056000878152602001908152602001600020600901544210611557576040517f08c379a000000000000000000000000000000000000000000000000000000000815260040161154e90612653565b60405180910390fd5b600560008781526020019081526020016000206007015485116115af576040517f08c379a00000000000000000000000000000000000000000000000000000000081526004016115a6906126d3565b60405180910390fd5b600073ffffffffffffffffffffffffffffffffffffffff166005600088815260200190815260200160002060080160009054906101000a900473ffffffffffffffffffffffffffffffffffffffff1673ffffffffffffffffffffffffffffffffffffffff16146116bc57600560008781526020019081526020016000206007015460066000600560008a815260200190815260200160002060080160009054906101000a900473ffffffffffffffffffffffffffffffffffffffff1673ffffffffffffffffffffffffffffffffffffffff1673ffffffffffffffffffffffffffffffffffffffff16815260200190815260200160002060008282546116b491906127e3565b925050819055505b846005600088815260200190815260200160002060070181905550336005600088815260200190815260200160002060080160006101000a81548173ffffffffffffffffffffffffffffffffffffffff021916908373ffffffffffffffffffffffffffffffffffffffff1602179055508173ffffffffffffffffffffffffffffffffffffffff16848873ffffffffffffffffffffffffffffffffffffffff167f6a082bd94c9a90ccdbd03a7ff9ca49e389ca6e3edeac1e3af7f3c09d122b89913360008089886040516117939594939291906124ba565b60405180910390a4505050506001600081905550505050565b60006005600083815260200190815260200160002060070154905060006005600084815260200190815260200160002060030160009054906101000a900473ffffffffffffffffffffffffffffffffffffffff1690506000600660003373ffffffffffffffffffffffffffffffffffffffff1673ffffffffffffffffffffffffffffffffffffffff168152602001908152602001600020549050828110611888576040517f08c379a000000000000000000000000000000000000000000000000000000000815260040161187f90612673565b60405180910390fd5b8173ffffffffffffffffffffffffffffffffffffffff163373ffffffffffffffffffffffffffffffffffffffff1614156118f7576040517f08c379a00000000000000000000000000000000000000000000000000000000081526004016118ee90612693565b60405180910390fd5b6000600660003373ffffffffffffffffffffffffffffffffffffffff1673ffffffffffffffffffffffffffffffffffffffff168152602001908152602001600020819055506000803373ffffffffffffffffffffffffffffffffffffffff16836040516119639061248a565b60006040518083038185875af1925050503d80600081146119a0576040519150601f19603f3d011682016040523d82523d6000602084013e6119a5565b606091505b5091509150816119ea576040517f08c379a00000000000000000000000000000000000000000000000000000000081526004016119e190612733565b60405180910390fd5b3373ffffffffffffffffffffffffffffffffffffffff167fbd534d3467660b93e3889762d2f386716c59899db5ea180d724f2c07955a7cf784604051611a309190612773565b60405180910390a2505050505050565b60606000611a4e6001611e91565b905060008060005b83811015611af7573373ffffffffffffffffffffffffffffffffffffffff1660056000600184611a8691906127e3565b815260200190815260200160002060030160009054906101000a900473ffffffffffffffffffffffffffffffffffffffff1673ffffffffffffffffffffffffffffffffffffffff161415611ae457600183611ae191906127e3565b92505b8080611aef906128c7565b915050611a56565b5060008267ffffffffffffffff811115611b3a577f4e487b7100000000000000000000000000000000000000000000000000000000600052604160045260246000fd5b604051908082528060200260200182016040528015611b7357816020015b611b60611eb5565b815260200190600190039081611b585790505b50905060005b84811015611e86573373ffffffffffffffffffffffffffffffffffffffff1660056000600184611ba991906127e3565b815260200190815260200160002060030160009054906101000a900473ffffffffffffffffffffffffffffffffffffffff1673ffffffffffffffffffffffffffffffffffffffff161415611e7357600060056000600184611c0a91906127e3565b815260200190815260200160002060000154905060006005600083815260200190815260200160002090508060405180610180016040529081600082015481526020016001820160009054906101000a900473ffffffffffffffffffffffffffffffffffffffff1673ffffffffffffffffffffffffffffffffffffffff1673ffffffffffffffffffffffffffffffffffffffff168152602001600282015481526020016003820160009054906101000a900473ffffffffffffffffffffffffffffffffffffffff1673ffffffffffffffffffffffffffffffffffffffff1673ffffffffffffffffffffffffffffffffffffffff1681526020016004820160009054906101000a900473ffffffffffffffffffffffffffffffffffffffff1673ffffffffffffffffffffffffffffffffffffffff1673ffffffffffffffffffffffffffffffffffffffff168152602001600582015481526020016006820160009054906101000a900460ff16151515158152602001600782015481526020016008820160009054906101000a900473ffffffffffffffffffffffffffffffffffffffff1673ffffffffffffffffffffffffffffffffffffffff1673ffffffffffffffffffffffffffffffffffffffff1681526020016008820160149054906101000a900460ff161515151581526020016008820160159054906101000a900460ff16151515158152602001600982015481525050848681518110611e56577f4e487b7100000000000000000000000000000000000000000000000000000000600052603260045260246000fd5b6020026020010181905250600185611e6e91906127e3565b945050505b8080611e7e906128c7565b915050611b79565b508094505050505090565b600081600001549050919050565b6001816000016000828254019250508190555050565b60405180610180016040528060008152602001600073ffffffffffffffffffffffffffffffffffffffff16815260200160008152602001600073ffffffffffffffffffffffffffffffffffffffff168152602001600073ffffffffffffffffffffffffffffffffffffffff1681526020016000815260200160001515815260200160008152602001600073ffffffffffffffffffffffffffffffffffffffff168152602001600015158152602001600015158152602001600081525090565b600081359050611f8381612b54565b92915050565b600081359050611f9881612b6b565b92915050565b600060208284031215611fb057600080fd5b6000611fbe84828501611f74565b91505092915050565b60008060408385031215611fda57600080fd5b6000611fe885828601611f74565b9250506020611ff985828601611f89565b9150509250929050565b60008060006060848603121561201857600080fd5b600061202686828701611f74565b935050602061203786828701611f89565b925050604061204886828701611f89565b9150509250925092565b6000806000806080858703121561206857600080fd5b600061207687828801611f74565b945050602061208787828801611f89565b935050604061209887828801611f89565b92505060606120a987828801611f89565b91505092959194509250565b6000602082840312156120c757600080fd5b60006120d584828501611f89565b91505092915050565b60006120ea8383612376565b6101808301905092915050565b6121008161287f565b82525050565b61210f8161287f565b82525050565b61211e8161286d565b82525050565b61212d8161286d565b82525050565b600061213e8261279e565b61214881856127b6565b93506121538361278e565b8060005b8381101561218457815161216b88826120de565b9750612176836127a9565b925050600181019050612157565b5085935050505092915050565b61219a81612891565b82525050565b6121a981612891565b82525050565b60006121bc6019836127d2565b91506121c78261293f565b602082019050919050565b60006121df601b836127d2565b91506121ea82612968565b602082019050919050565b6000612202600b836127d2565b915061220d82612991565b602082019050919050565b60006122256006836127d2565b9150612230826129ba565b602082019050919050565b6000612248601b836127d2565b9150612253826129e3565b602082019050919050565b600061226b6013836127d2565b915061227682612a0c565b602082019050919050565b600061228e6024836127d2565b915061229982612a35565b604082019050919050565b60006122b16000836127c7565b91506122bc82612a84565b600082019050919050565b60006122d4601d836127d2565b91506122df82612a87565b602082019050919050565b60006122f76016836127d2565b915061230282612ab0565b602082019050919050565b600061231a601f836127d2565b915061232582612ad9565b602082019050919050565b600061233d6012836127d2565b915061234882612b02565b602082019050919050565b60006123606014836127d2565b915061236b82612b2b565b602082019050919050565b6101808201600082015161238d600085018261246c565b5060208201516123a06020850182612115565b5060408201516123b3604085018261246c565b5060608201516123c660608501826120f7565b5060808201516123d960808501826120f7565b5060a08201516123ec60a085018261246c565b5060c08201516123ff60c0850182612191565b5060e082015161241260e085018261246c565b50610100820151612427610100850182612115565b5061012082015161243c610120850182612191565b50610140820151612451610140850182612191565b5061016082015161246661016085018261246c565b50505050565b612475816128bd565b82525050565b612484816128bd565b82525050565b6000612495826122a4565b9150819050919050565b60006020820190506124b46000830184612106565b92915050565b600060a0820190506124cf6000830188612124565b6124dc6020830187612124565b6124e960408301866121a0565b6124f6606083018561247b565b612503608083018461247b565b9695505050505050565b60006060820190506125226000830186612124565b61252f6020830185612124565b61253c604083018461247b565b949350505050565b60006101208201905061255a600083018c612124565b612567602083018b612124565b612574604083018a61247b565b61258160608301896121a0565b61258e608083018861247b565b61259b60a0830187612124565b6125a860c08301866121a0565b6125b560e08301856121a0565b6125c361010083018461247b565b9a9950505050505050505050565b600060208201905081810360008301526125eb8184612133565b905092915050565b6000602082019050818103600083015261260c816121af565b9050919050565b6000602082019050818103600083015261262c816121d2565b9050919050565b6000602082019050818103600083015261264c816121f5565b9050919050565b6000602082019050818103600083015261266c81612218565b9050919050565b6000602082019050818103600083015261268c8161223b565b9050919050565b600060208201905081810360008301526126ac8161225e565b9050919050565b600060208201905081810360008301526126cc81612281565b9050919050565b600060208201905081810360008301526126ec816122c7565b9050919050565b6000602082019050818103600083015261270c816122ea565b9050919050565b6000602082019050818103600083015261272c8161230d565b9050919050565b6000602082019050818103600083015261274c81612330565b9050919050565b6000602082019050818103600083015261276c81612353565b9050919050565b6000602082019050612788600083018461247b565b92915050565b6000819050602082019050919050565b600081519050919050565b6000602082019050919050565b600082825260208201905092915050565b600081905092915050565b600082825260208201905092915050565b60006127ee826128bd565b91506127f9836128bd565b9250827fffffffffffffffffffffffffffffffffffffffffffffffffffffffffffffffff0382111561282e5761282d612910565b5b828201905092915050565b6000612844826128bd565b915061284f836128bd565b92508282101561286257612861612910565b5b828203905092915050565b60006128788261289d565b9050919050565b600061288a8261289d565b9050919050565b60008115159050919050565b600073ffffffffffffffffffffffffffffffffffffffff82169050919050565b6000819050919050565b60006128d2826128bd565b91507fffffffffffffffffffffffffffffffffffffffffffffffffffffffffffffffff82141561290557612904612910565b5b600182019050919050565b7f4e487b7100000000000000000000000000000000000000000000000000000000600052601160045260246000fd5b7f41756374696f6e207374696c6c20696e2070726f677265737300000000000000600082015250565b7f5072696365206d7573742062652061746c656173742031207765690000000000600082015250565b7f4e6f742053746172746564000000000000000000000000000000000000000000600082015250565b7f456e646564210000000000000000000000000000000000000000000000000000600082015250565b7f596f752061726520746865206869676865737420626964646572210000000000600082015250565b7f596f7520617265207468652073656c6c65722100000000000000000000000000600082015250565b7f5072696365206d75737420626520657175616c20746f206c697374696e67207060008201527f7269636500000000000000000000000000000000000000000000000000000000602082015250565b50565b7f426964206973206c6f776572207468616e206869676865737420626964000000600082015250565b7f41756374696f6e20616c726561647920656e6465642100000000000000000000600082015250565b7f5265656e7472616e637947756172643a207265656e7472616e742063616c6c00600082015250565b7f436f756c64206e6f742077697468647261770000000000000000000000000000600082015250565b7f41756374696f6e206e6f74207374617274656421000000000000000000000000600082015250565b612b5d8161286d565b8114612b6857600080fd5b50565b612b74816128bd565b8114612b7f57600080fd5b5056fea264697066735822122079514280d6ead2a2fd99772218cd427e963f5275542ebf3135a56213807f45f064736f6c63430008040033",
  "linkReferences": {},
  "deployedLinkReferences": {}
}